:100000000C9434000C9451000C9451000C94510049
:100010000C9451000C9451000C9451000C9451001C
:100020000C9451000C9451000C9451000C9451000C
:100030000C9451000C9451000C9451000C945100FC
:100040000C9451000C9451000C9451000C945100EC
:100050000C9451000C9451000C9451000C945100DC
:100060000C9451000C94510011241FBECFEFD8E026
:10007000DEBFCDBF11E0A0E0B1E0E0E8FEE002C0ED
:1000800005900D92A830B107D9F711E0A8E0B1E0D2
:1000900001C01D92A830B107E1F70E9453000C94F3
:1000A0003E070C9400000F931F93CF93DF93CDB7BF
:1000B000DEB72F970FB6F894DEBF0FBECDBF198203
:1000C0008BEF90E0FC0109952EE431E088E090E0B0
:1000D000F901099519828AC02EE431E08981882FBF
:1000E00090E0F901099580E090E0AAE7B4E48A8302
:1000F0009B83AC83BD836A817B818C819D8120E061
:1001000030E04AE755E40E948503DC01CB018E8391
:100110009F83A887B98711E06E817F818885998543
:1001200020E030E040E85FE30E94E80488230CF020
:1001300010E0112329F081E090E09B878A8746C078
:1001400011E06E817F818885998520E03FEF4FE740
:1001500057E40E94860418160CF010E0112361F198
:100160006A817B818C819D8120E030E040E251E416
:100170000E948503DC01CB01BC01CD010E949801E6
:10018000DC01CB019B878A8712C080E991E09D87C3
:100190008C878C859D858C01C8010197F1F78C01B6
:1001A0001D870C878A859B8501979B878A878A850F
:1001B0009B85009751F717C06E817F81888599854F
:1001C0000E949801DC01CB019B878A878A859B85E9
:1001D0009F878E878E859F858C01C8010197F1F7D7
:1001E0008C011F870E8789818F5F898389818A307F
:1001F00008F472CF6FCFCF93DF93CDB7DEB784E231
:1002000090E024E230E0F90120812D62FC0120839E
:100210008CE490E020E5FC012083DF91CF910895EC
:10022000CF93DF930F92CDB7DEB789838EE490E052
:100230002981FC01208300008DE490E0FC01808195
:100240008823D4F70F90DF91CF910895CF93DF9358
:100250000F92CDB7DEB7898385E290E025E230E0EA
:10026000F90120812E7FFC01208389810E941001E9
:1002700085E290E025E230E0F90120812160FC0177
:10028000208385E290E025E230E0F90120812E7F95
:10029000FC0120830F90DF91CF910895CF93DF93DE
:1002A0000F92CDB7DEB7898385E290E025E230E09A
:1002B000F90120812E7FFC0120838981883080F420
:1002C00080E00E9410018981282F30E081E090E0D9
:1002D00002C0880F991F2A95E2F70E94100112C0F0
:1002E0008981882F90E09C012850304081E090E087
:1002F00002C0880F991F2A95E2F70E94100180E042
:100300000E94100185E290E025E230E0F9012081B1
:100310002160FC01208385E290E025E230E0F901D4
:1003200020812E7FFC0120830F90DF91CF910895D3
:10033000CF92DF92EF92FF920F931F936B017C019C
:1003400020E030E040E05FE40E94B70487FD11C088
:10035000C701B60120E030E040E05FE40E944D03B9
:100360000E9419058B019C0100501040204030482C
:1003700006C0C701B6010E9419058B019C01B80196
:10038000C9011F910F91FF90EF90DF90CF900895DA
:10039000A0E0B0E0EEECF1E00C940907EC014B01B9
:1003A000FA018881823008F43EC1DB019C919230D1
:1003B00008F436C1843059F4943009F034C199817D
:1003C00011968C911197981709F027C12CC1943080
:1003D00009F426C19230A9F4823009F024C1CE017B
:1003E00028E0DC010D90CD01DA010D92AD01215024
:1003F000C1F7D40111968C9111979981892381833A
:1004000011C1823009F40CC1AA80BB80DB011296B5
:100410004D915C911397CC80DD80EE80FF80149627
:100420000D911D912D913C911797C501841B950B42
:10043000DC0197FF04C0AA27BB27A81BB90BA03279
:10044000B1050CF067C01816190684F528013901AA
:100450000A2E04C076946794579447940A94D2F76E
:1004600041E050E060E070E004C0440F551F661F9B
:10047000771FAA95D2F7415050406040704040230A
:1004800051236223732381E090E0A0E0B0E04115A6
:1004900051056105710519F480E090E0DC018C01E3
:1004A0009D0104291529262937293FC00097E9F124
:1004B000AA0EBB1E260137010A2E04C0769467944B
:1004C000579447940A94D2F741E050E060E070E01E
:1004D00004C0440F551F661F771FAA95D2F74150DD
:1004E0005040604070404C215D216E217F2181E0B1
:1004F00090E0A0E0B0E0411551056105710519F4E7
:1005000080E090E0DC016C017D01C428D528E6285C
:10051000F7280BC04A155B0524F400E010E09801B1
:1005200004C05A01CC24DD2476018981D4011196BE
:100530009C911197891709F445C0882329F00C195B
:100540001D092E093F0908C0D701C601801B910B68
:10055000A20BB30B8C019D0137FD04C01182B38245
:10056000A2820BC081E08183B382A2823095209564
:10057000109501951F4F2F4F3F4F048315832683FE
:1005800037830DC0880F991FAA1FBB1F84839583D3
:10059000A683B78382819381019793838283848129
:1005A0009581A681B781AC01BD01415050406040AA
:1005B00070404F3F2FEF52072FEF62072FE3720774
:1005C00008F30BC08183B382A2820C0D1D1D2E1D6A
:1005D0003F1D048315832683378383E08083448112
:1005E00055816681778177FF1DC0DB01CA0181706B
:1005F0009070A070B0707695679557954795842B4D
:10060000952BA62BB72B84839583A683B7838281F2
:10061000938101969383828305C0C0E0D1E003C03B
:10062000E40101C0EF01CE01CDB7DEB7E0E10C94EB
:100630002507A0E2B0E0EFE1F3E00C941707DC013E
:10064000CB018D839E83AF83B88729833A834B8305
:100650005C83CE010596BE01675E7F4F0E94410616
:10066000CE010196BE016F5E7F4F0E944106CE0112
:100670004996BE016F5E7F4FAE01475F5F4F0E949C
:10068000C8010E946A05462F572F682F792FCB018A
:10069000BA01A096E2E00C943307A0E2B0E0E3E5F3
:1006A000F3E00C941707DC01CB018D839E83AF83AD
:1006B000B88729833A834B835C83CE010596BE01BC
:1006C000675E7F4F0E944106CE010196BE016F5EBC
:1006D0007F4F0E9441068A8991E089278A8BCE014B
:1006E0004996BE016F5E7F4FAE01475F5F4F0E942C
:1006F000C8010E946A05462F572F682F792FCB011A
:10070000BA01A096E2E00C943307A0E2B0E0EBE877
:10071000F3E00C940907DC01CB018D839E83AF834A
:10072000B88729833A834B835C83CE010596BE014B
:10073000675E7F4F0E944106CE010196BE016F5E4B
:100740007F4F0E944106998D923078F089898230DE
:10075000C0F0943019F4823041F4CAC0843019F4E6
:10076000923079F4C5C0923051F481E02A8D9A8993
:10077000291709F480E08A8FCE014996BBC08230E8
:1007800051F481E02A8D9A89291709F480E08A8B37
:10079000CE014196AFC04D8C5E8C6F8C78A00D89D8
:1007A0001E892F89388DE0E2F0E040E050E0BA0188
:1007B000882499245401CC24DD247601C20181705F
:1007C00090700097D1F0C00ED11EE21EF31EDB0127
:1007D000CA01880D991DAA1DBB1D41E050E060E0D3
:1007E00070E0C016D106E206F30618F040E050E0D3
:1007F000BA01480F591F6A1F7B1F880C991CAA1C3D
:10080000BB1C37FF08C081E090E0A0E0B0E0882A80
:10081000992AAA2ABB2A000F111F221F331F769480
:10082000679457944794319749F68B8D9C8D2B890B
:100830003C89820F931F02969C878B8781E02A8DCB
:100840009A89291709F480E08A872B853C8517C08F
:10085000CA0181709070009761F0F694E794D79484
:10086000C79480E090E0A0E0B0E8C82AD92AEA2A3C
:10087000FB2A76956795579547952F5F3F4F77FDF4
:10088000E7CFC9010BC0440F551F661F771FF7FC48
:100890004160CC0CDD1CEE1CFF1C01974030A0E039
:1008A0005A07A0E06A07A0E47A0768F38B879C8761
:1008B000DB01CA018F779070A070B0708034910511
:1008C000A105B10561F447FD0AC0C114D104E104DA
:1008D000F10429F0405C5F4F6F4F7F4F40784D87A8
:1008E0005E876F87788B83E08987CE01099602C087
:1008F00080E091E00E946A05462F572F682F792FDC
:10090000CB01BA01A096E0E10C942507A8E1B0E084
:10091000ECE8F4E00C941707DC01CB018D839E8397
:10092000AF83B88729833A834B835C83CE010596D6
:10093000BE016F5E7F4F0E944106CE010196BE014F
:10094000675F7F4F0E9441068989823058F0898510
:10095000823040F0CE014196BE01675F7F4F0E941A
:10096000AA0601C08FEF6896E2E00C943307A8E175
:10097000B0E0EDEBF4E00C941707DC01CB018D83C4
:100980009E83AF83B88729833A834B835C83CE01F0
:100990000596BE016F5E7F4F0E944106CE01019613
:1009A000BE01675F7F4F0E9441068989823058F0FF
:1009B0008985823040F0CE014196BE01675F7F4F4E
:1009C0000E94AA0601C08FEF6896E2E00C943307FC
:1009D000A8E1B0E0EEEEF4E00C941707DC01CB01E7
:1009E0008D839E83AF83B88729833A834B835C834F
:1009F000CE010596BE016F5E7F4F0E944106CE017B
:100A00000196BE01675F7F4F0E944106898982304F
:100A100058F08985823040F0CE014196BE01675F73
:100A20007F4F0E94AA0601C081E06896E2E00C9424
:100A30003307ACE0B0E0EFE1F5E00C941507DC0122
:100A4000CB0189839A83AB83BC83CE010196BE011F
:100A50006B5F7F4F0E9441068D81823069F1823049
:100A600058F1843039F02F81388537FD25C02F317A
:100A7000310544F08E81882319F100E010E020E078
:100A800030E822C08EE190E0821B930B09851A8525
:100A90002B853C8504C036952795179507958A9533
:100AA000D2F78E81882381F030952095109501959D
:100AB0001F4F2F4F3F4F08C000E010E0980104C0C7
:100AC0000FEF1FEF2FEF3FE7B801C9012C96E4E0CD
:100AD0000C943107CF92DF92EF92FF920F931F9306
:100AE000DC0114964D915D916D917C911797119653
:100AF000EC9111978C91823020F460618FEF90E03F
:100B0000A5C0843009F49DC0823009F494C0411519
:100B100051056105710509F491C012968D919C9162
:100B200013972FEF823892070CF059C022E83FEF5D
:100B3000281B390B2A31310564F56A017B01022E2D
:100B400004C0F694E794D794C7940A94D2F781E04E
:100B500090E0A0E0B0E004C0880F991FAA1FBB1F5F
:100B60002A95D2F70197A109B10984239523A623D9
:100B7000B72341E050E060E070E00097A105B105C7
:100B800019F440E050E0BA014C295D296E297F2913
:100B900003C040E050E0BA01DB01CA018F779070DA
:100BA000A070B07080349105A105B10539F447FFFC
:100BB00009C0405C5F4F6F4F7F4F04C0415C5F4F87
:100BC0006F4F7F4F81E090E0403020E0520720E0FF
:100BD000620720E4720738F580E090E024C0803896
:100BE00091057CF58A019B010F77107020703070A1
:100BF000003411052105310539F447FF09C0405C77
:100C00005F4F6F4F7F4F04C0415C5F4F6F4F7F4F0F
:100C100077FD03C081589F4F06C07695679557951D
:100C2000479580589F4F97E07695679557954795DC
:100C30009A95D1F70BC080E090E005C080E090E08D
:100C400005C08FEF90E040E050E0BA01982F9795F3
:100C500099279795A62FAF77E795EE27E795869585
:100C60003A2F392B282F2E2B842F952FA32FB22FDD
:100C7000BC01CD011F910F91FF90EF90DF90CF90BD
:100C80000895DC01FB014C9111965C91119712962D
:100C90008C911297682F6F7770E0982F991F992782
:100CA000991F13962C911397822F880F892B90E010
:100CB000221F2227221F2183009739F54115510554
:100CC0006105710511F482E029C082E89FEF9383EA
:100CD000828327E0440F551F661F771F2A95D1F79F
:100CE00083E0808309C0440F551F661F771F8281F0
:100CF0009381019793838283403080E0580780E09E
:100D0000680780E4780778F320C08F3F910579F475
:100D1000411551056105710519F484E0808308953A
:100D200064FF03C081E0808310C010820EC08F5723
:100D300090409383828383E0808387E0440F551F34
:100D4000661F771F8A95D1F7706444835583668345
:100D500077830895CF93FC01DB019081923008F4F2
:100D60004CC08C91823008F448C0943069F42181E1
:100D7000843039F411968C91119790E0821B91097F
:100D800044C02223D1F13FC0843021F0923041F49D
:100D90008230B1F111968C9111978823A1F12DC069
:100DA000C181823001F111968C911197C817D9F445
:100DB0008281938112962D913C91139728173907C0
:100DC00094F082179307BCF0448155816681778146
:100DD00014968D919D910D90BC91A02D841795072F
:100DE000A607B70718F4CC2341F00DC048175907E0
:100DF0006A077B0728F4CC2331F081E090E005C03E
:100E000080E090E002C08FEF9FEFCF9108952F9286
:100E10003F924F925F926F927F928F929F92AF928A
:100E2000BF92CF92DF92EF92FF920F931F93CF93D7
:100E3000DF93CDB7DEB7CA1BDB0B0FB6F894DEBF6E
:100E40000FBECDBF09942A88398848885F846E8494
:100E50007D848C849B84AA84B984C884DF80EE80DE
:100E6000FD800C811B81AA81B981CE0FD11D0FB6E7
:100E7000F894DEBF0FBECDBFED010895F894FFCF0B
:080E800000000000000000006A
:00000001FF
