:100000000C9434000C9451000C9451000C94510049
:100010000C9451000C9451000C9451000C9451001C
:100020000C9451000C9451000C9451000C9451000C
:100030000C9451000C9451000C9451000C945100FC
:100040000C9451000C9451000C9451000C945100EC
:100050000C9451000C9451000C9451000C945100DC
:100060000C9451000C94510011241FBECFEFD8E026
:10007000DEBFCDBF11E0A0E0B1E0E4E7F1E002C0F7
:1000800005900D92A030B107D9F711E0A0E0B1E0E2
:1000900001C01D92A030B107E1F70E9453000C94FB
:1000A000B8000C940000CF93DF93CDB7DEB782E6A3
:1000B00090E0FC0109952DE830E08DED90E0F9012C
:1000C0000995FFCFCF93DF93CDB7DEB784E290E001
:1000D00024E230E0F90120812D62FC0120838CE4D0
:1000E00090E023E5FC012083DF91CF910895CF9329
:1000F000DF930F92CDB7DEB789838EE490E029813C
:10010000FC01208300008DE490E0FC0180818823C5
:10011000D4F70F90DF91CF910895CF93DF930F9293
:10012000CDB7DEB7898385E290E025E230E0F901C2
:1001300020812E7FFC01208389810E9477008981A4
:100140000E94770085E290E025E230E0F90120810D
:100150002160FC01208385E290E025E230E0F90196
:1001600020812E7FFC0120830F90DF91CF91089595
:04017000F894FFCF31
:00000001FF
