:100000000C9434000C9451000C9451000C94510049
:100010000C9451000C9451000C9451000C9451001C
:100020000C9451000C9451000C9451000C9451000C
:100030000C9451000C9451000C9451000C945100FC
:100040000C9451000C9451000C9451000C945100EC
:100050000C9451000C9451000C9451000C945100DC
:100060000C9451000C94510011241FBECFEFD8E026
:10007000DEBFCDBF11E0A0E0B1E0E8E6F1E002C0F4
:1000800005900D92A030B107D9F711E0A0E0B1E0E2
:1000900001C01D92A030B107E1F70E9453000C94FB
:1000A000B2000C940000CF93DF93CDB7DEB788E6A3
:1000B00090E0FC01099523E930E08AE590E0F90140
:1000C000099523E930E08AE590E0F9010995FFCF31
:1000D000CF93DF93CDB7DEB784E290E024E230E047
:1000E000F90120812C62FC0120838CE490E020E562
:1000F000FC012083DF91CF910895CF93DF930F927E
:10010000CDB7DEB789838EE490E02981FC0120839E
:1001100000008DE490E0FC0180818823D4F70F90EB
:10012000DF91CF910895CF93DF930F92CDB7DEB7D4
:10013000898385E290E025E230E0F90120812B7F80
:10014000FC01208389810E947D0085E290E025E208
:1001500030E0F90120812460FC0120830F90DF91C1
:08016000CF910895F894FFCF40
:00000001FF
